:020000040000FA
:10000000802C001041020000490200004B02000059
:100010004D0200004F0200005102000000000000ED
:10002000000000000000000000000000750100005A
:100030005502000000000000B9010000DB0D0000C7
:100040005B0200005B0200005B0200005B0200003C
:100050005B0200005B0200005B0200005B0200002C
:100060005B0200005B0200005B0200005B0200001C
:100070005B0200005B0200005B0200005B0200000C
:100080005B0200005B0200005B0200005B020000FC
:100090005B0200005B0200005B0200005B020000EC
:1000A0005B0200005B0200005B0200005B020000DC
:1000B0005B0200005B0200005B0200005B020000CC
:1000C0005B0200005B0200005B02000000F002F82F
:1000D00000F041F80AA090E8000C82448344AAF1A1
:1000E0000107DA4501D100F036F8AFF2090EBAE89F
:1000F0000F0013F0010F18BFFB1A43F0010318475C
:100100004033000060330000103A24BF78C878C143
:10011000FAD8520724BF30C830C144BF04680C600D
:10012000704700000023002400250026103A28BF55
:1001300078C1FBD8520728BF30C148BF0B60704759
:10014000642902F01F87002070471FB502F0F3FFFB
:100150001FBD10B510BD03F030F91146FFF7F5FFD4
:1001600000F00DFA03F04EF903B4FFF7F2FF03BC01
:1001700003F052F9224B19680868B0E8F00F80F3D9
:100180000988BFF36F8F4FF0000080F311884EF0A5
:100190000D0E70470000000006480068006880F3FC
:1001A000088862B661B6BFF34F8FBFF36F8F00DF71
:1001B00000BF00BF08ED00E0EFF30980BFF36F8FD1
:1001C0000F4B1A6820E9F00F106008B54FF02800B7
:1001D00080F31188BFF34F8FBFF36F8F01F01EFFC5
:1001E0004FF0000080F31188BDE8084019680868E6
:1001F000B0E8F00F80F30988BFF36F8F704700BF3E
:1002000030000010EFF30580704700000B49D1F873
:1002100000C04A685CF8043B1068184442F8040BBC
:100220008C4528BFA1F1DC0C8A4228BFA1F1DC0279
:10023000C1F800C04A6020F000407047142A001046
:100240000948804709480047FEE7FEE7FEE7FEE76A
:10025000FEE7FEE7FEE7FEE7FEE7FEE704480549A6
:10026000034A054B7047000065080000CD00000000
:10027000802A0010802C0010802A00100FB41CB5BA
:10028000074B06AA7B4469460090059803F04BF89B
:100290000020694603F05AF81CBC5DF814FB00000E
:1002A000C530000070B5044685690068C10601D5F7
:1002B000302600E02026C00708D070BDD4E9012117
:1002C00030469047206A00F1010020626D1EF5D58E
:1002D00070BD70B5044685690078C00708D170BD4F
:1002E000D4E9012120209047206A00F1010020621A
:1002F0006D1EF5D570BD704770477047FFFFFFFF5B
:1003000010B504464FF44640BC49C86314F0010FD1
:1003100001D00815886314F0020F03D04FF48060F9
:10032000B649886314F0040F03D04FF48040B349FA
:10033000886314F0080F03D04FF40040AF4988637E
:100340000220AE49886301F080FD0220AB49C863FA
:1003500010BD10B504460120A849C8632011FFF75D
:10036000CFFF04F00F00FFF7CBFF10BD10B5044620
:100370000120A24988632011FFF7C2FF04F00F009B
:10038000FFF7BEFF10BD10B59C48006A4CF2036138
:1003900008439A490862322001F057FD3320FFF7E5
:1003A000D8FF3220FFF7D5FF2820FFF7D2FF0C201F
:1003B000FFF7CFFF0620FFF7CCFF0120FFF7C9FFB3
:1003C00010BD0EB58E4A07CA8DE8070000BF8D48E4
:1003D0000068401C8B490860FFF718FF032190FB61
:1003E000F1F201FB1200401E009908440090FFF753
:1003F0000DFF032190FBF1F201FB1200401E019959
:1004000008440190FFF702FF044600EBD47040104F
:10041000A4EB40002430029000983C2801DA3C20F4
:1004200000900098642801DD6420009002230022DF
:1004300069467548006800F0FBFD4FF47A7001F0E2
:1004400004FDC4E788B0FFF79EFF00BF6F48006857
:10045000401C6E4908604FF0FF3205A96A480068E9
:1004600000F022FF0128F1D18020FFF772FF68A180
:1004700001A8DDE90523FFF701FF002404E001A93D
:10048000085DFFF773FF641C01A8005D0028F6D12A
:10049000C020FFF75EFF63A101A8079AFFF7EEFEF9
:1004A000002404E001A9085DFFF760FF641C01A8B7
:1004B000005D0028CAD0F5E78CB05F48006840F0C6
:1004C00050005D49086083205C490873A2200870D1
:1004D0000320087300BF002209A94B48006800F000
:1004E000D4FF012818D10B98009055A101A8DDE98F
:1004F0000923FFF7C3FE00240AE000BF4F48007D38
:1005000010F0200FFAD001A8005D4C490870641C5F
:1005100001A8005D0028F0D14FF4FA7001F095FCBD
:10052000D9E7002109E000BF444A127D12F0200FF4
:10053000FAD0425C414B1A70491C425C002AF2D14D
:1005400070470025002400BF41F2883001F07DFC97
:100550002C480068A84206D14FF400202749886340
:100560003AA0FFF7DEFF29480068A04202D143A06D
:10057000FFF7D7FF2348056824480468E4E71CB563
:1005800000F070F900220C21012000F0A8FC1E49A7
:1005900008600846006800282DD00020032103468B
:1005A0008022CDE900103DA1AFF2E91001F08DF9F4
:1005B0000020022103468022CDE9001039A1AFF2CC
:1005C0007B1001F082F90020012103468022CDE951
:1005D000001036A1AFF21F1001F077F900200221C0
:1005E00003468022CDE9001032A1AFF2A90001F04C
:1005F0006CF901F0D8FE00BFFEE7000000C0092042
:100600003434000000000010080000100400001046
:1006100048523A2533642053704F323A25642525D9
:100620000000000054656D703A20256420432020AE
:10063000202020200000000000C0024000C0004038
:1006400025642C25642C25640D0A0000435249546E
:100650004943414C204552524F523A2053656E73E4
:100660006F72205461736B2048616E67204465741B
:100670006563746564210D0A000000005741524E05
:10068000494E473A20446973706C61792054617314
:100690006B205374616C6C210D0A000053656E73FE
:1006A0006F727300446973706C61790055415254E4
:1006B000000000004D6F6E69746F72002DE9F04705
:1006C000B1480068C0F3016003287CD1AF480068DE
:1006D00010F0030006D0012833D002285FD0032891
:1006E0002ED100E000BFA8480068C0F3074000F129
:1006F00001044FF00201A648D0F88800C0F30E00B4
:1007000000F10100A1FB0001A24B4FF0000CA0FB87
:10071000037901FB039100FB0C1122466346384626
:1007200002F0B8FB05469C480068C0B200F1010425
:1007300022464FF00003284602F0ACFB97490860C0
:100740005DE091480068C0F3074000F101044FF0FC
:1007500002018F48D0F88800C0F30E0000F10100BC
:10076000A1FB00108E4A4FF0000CA1FB027900FBA8
:10077000029001FB0C0122466346384602F08AFBD8
:10078000054685480068C0B200F1010422464FF0DA
:100790000003284602F07EFB804908602FE07A487B
:1007A0000068C0F3074000F101044FF002017848EF
:1007B000D0F88800C0F30E0000F10100A1FB001288
:1007C0004FF4004000E01BE04FF00003A1FB007974
:1007D00002FB009001FB03012246384602F05AFB5F
:1007E00005466D480068C0B200F1010422464FF092
:1007F0000003284602F04EFB6849086000BF2FE066
:100800006248006810F0030006D0012810D00228CA
:1008100019D0032823D100E000BF5F480068C0B2B0
:1008200000F101005B49B1FBF0F05C49086016E0A3
:1008300059480068C0B200F101005949B1FBF0F01D
:10084000564908600BE054480068C0B200F101004E
:100850004FF40041B1FBF0F05049086000BF00BF09
:10086000BDE8F08720204F4908604948D0F8A00132
:1008700010F0200F05D000BF4A48006810F0400F6C
:10088000FAD00320444908604FF000004049C1F805
:10089000A801454908604FF001003C490860434801
:1008A000434908604FF0AA00424908604FF05500E4
:1008B00008604FF00100404908604FF0AA003D4930
:1008C00008604FF055003249C1F88C0000BF2E4837
:1008D000006810F0806FFAD00320374908604FF0AD
:1008E000AA002B49C1F88C004FF05500314908602F
:1008F00000BF2548006800F04070B0F1407FF8D19B
:1009000023202E4908604FF0AA002149C1F8AC000D
:100910004FF055002A4908604FF00100294908604E
:100920004FF0AA00264908604FF055001849C1F859
:10093000AC0000BF2448006810F4806FFAD0032098
:10094000204908604FF0AA001149C1F8AC004FF0EF
:1009500055001B49086000BF1B48006800F4407048
:10096000B0F5407FF8D11948194908604FF00000F0
:100970000749C1F8C8010846006820F4704040F4F7
:10098000804008607047000088C00F400CC10F40D5
:1009900000C00F4000093D0004C10F400C000010D2
:1009A000001BB700A0C10F40ACC10F4063000500A1
:1009B00084C00F408CC00F4080C00F40A4C00F40C7
:1009C000ACC00F40A0C00F40A8C00F40DE87280475
:1009D000C4C00F4030B54FF42053A84810F0070FA3
:1009E00005D0C01D20F00700A44C041B1B1BA44C09
:1009F00020600024A24D6C60C218083A22F0070261
:100A0000A04C226000249F4D2D686C609D4D2D6888
:100A10002C600146541A4C609A4C24680C609A4D24
:100A20004C682C60994D4C682C6030BD2DE9F04726
:100A300004464FF00009DCB114F1090F01D901207F
:100A400000E0002098B9083414F0070F10D004F02B
:100A50000700C0F10808C8F1FF30A04201D2012010
:100A600000E0002008B9444402E0002400E0002433
:100A700001F0AFF98348006808B9FFF7ABFF012028
:100A800010EBE47041D0002C3FD0804800688442D5
:100A90003BD87B4E3046056801E02E462D686868DD
:100AA000A04202D228680028F7D176480068854223
:100AB0002BD0306800F10809286830606868001B96
:100AC000102807D92F196868001B78606C6030689F
:100AD000386037606D4968680968081A6B490860B2
:100AE0000846006868490968884203D26748006878
:100AF00065490860686840F0004068600020286030
:100B000063480068401C6249086001F034F84846B8
:100B1000BDE8F08710B50146594800E00068036859
:100B20008B42FBD30246436813448B4204D1436893
:100B30004C682344436001460A464B6813440468EA
:100B4000A34211D14F4C03682468A34208D04B68DC
:100B50000468646823444B6003681B680B6005E00D
:100B6000484B1B680B6001E003680B60884200D0B3
:100B7000016010BD70B506463546E6B1083D2C460D
:100B80006068C00F17D02068A8B9606820F00040E6
:100B9000606001F01EF93D496068096808443B49FE
:100BA00008602046FFF7B6FF3A480068401C394904
:100BB000086000F0E0FF70BD3448006870473248BC
:100BC00000687047704770B504460D46002634B182
:100BD000701EB0FBF4F0A84201D2012000E000201A
:100BE00050B904FB05F0FFF721FF064626B104FBD0
:100BF00005F1304602F0EDFA304670BD2DE9F041C6
:100C000004464FF000080026771E01F0E2F81C4869
:100C100005687DB10AE008F101086868B04200D9B2
:100C20006E686868B84200D26F682D681548006821
:100C30008542F0D100F09FFF6660A760C4F80C8089
:100C400000F0AEF81148006820601148006860614B
:100C500010480068A0610C480068206100F0AFF8FF
:100C6000BDE8F0810020074908600849086006498E
:100C70000860074908600749086070477000001065
:100C800024000010100000101800001014000010C4
:100C90001C0000102000001000F1080141604FF01E
:100CA000FF31816000F10801C16001610021016034
:100CB000704700210161704742684A6093688B6009
:100CC000936859609160086103685B1C036070471A
:100CD00010B502460B685C1C01D1106907E002F1F7
:100CE000080000E04068446824689C42FAD94468DF
:100CF0004C604C68A160886041600A611468641CA3
:100D0000146010BD01460A69D1E901309860D1E94B
:100D1000010358605068884201D188685060002003
:100D200008611068401E10601068704700BF2820DE
:100D300080F31188BFF34F8FBFF36F8F00BF00BFE9
:100D4000FEE7001F4FF080730360001F21F00103D6
:100D50000360001F2D4B0360143802602038704779
:100D600000204FF0E0210861886129484861072090
:100D70000861704710B52748006840F47F00254996
:100D800008600846006840F07F400860FFF7E8FF11
:100D9000002021490860FFF7FFF9002010BD7047CF
:100DA00000BF282080F31188BFF34F8FBFF36F8FF0
:100DB00000BF19480068401C174908607047164872
:100DC0000068401E144908600846006820B90020E9
:100DD00080F3118800BF00BF704710B500BF282006
:100DE00080F31188BFF34F8FBFF36F8F00BF00F008
:100DF00008FE20B14FF0805006491C39086000BF42
:100E0000002080F3118800BF10BD00002D0D0000F0
:100E10009F86010020ED00E02C0000102DE9F0413C
:100E200005460E4601272C46002C41D0E06B0028D9
:100E30003ED0B91EE06BB1FBF0F0216C884237D395
:100E4000FFF7AEFFD4E90F12206801FB0200A0609B
:100E50000020A06320686060E06B401E226C216867
:100E600000FB0211E160FF2084F8440084F8450093
:100E70009EB9206908B9012000E00020A8B904F15A
:100E8000100001F04DFB80B14FF08050F849086030
:100E9000BFF34F8FBFF36F8F07E004F11000FFF730
:100EA000FBFE04F12400FFF7F7FEFFF788FF00E0E8
:100EB00000273846BDE8F0812DE9F04106460D4691
:100EC00017469846069C0DB9246000E02760E6634B
:100ED000256401212046FFF7A1FFBDE8F0812DE93F
:100EE000F84304460E4617460025DCB1681EB0FBE9
:100EF000F4F0B04216D304FB06F010F1490F11D8FC
:100F000004FB06F909F14800FFF790FD05464DB1D5
:100F1000A84608F148083B4642463146204600951F
:100F2000FFF7CAFF2846BDE8F88370B50446FFF70F
:100F300037FF94F9455010E0606A08B9012000E0DD
:100F4000002038B904F1240001F0EAFA18B101F0E8
:100F50000EFC00E003E0681E45B2002DECDC00BF93
:100F6000FF2084F84500FFF72AFFFFF719FF94F9E7
:100F7000445010E0206908B9012000E0002048B981
:100F800004F1100001F0CCFA08B101F0F0FB681E8A
:100F900045B200E001E0002DECDC00BFFF2084F84A
:100FA0004400FFF70CFF70BD70B50546FFF7F8FE73
:100FB000A86BE96B884201D1012400E00024FFF70F
:100FC000FEFE204670BD2DE9F04104460F46154651
:100FD0004FF00008A66B206C28B37DB93946226C0F
:100FE000606802F0B1F8216C606808446060D4E980
:100FF0000101884217D32068606014E03946226CF2
:10100000E06802F0A1F8216CE068411AE160216813
:10101000E068884203D2216CA068411AE160022D89
:1010200001D106B1761E701CA0634046BDE8F08178
:101030002DE9FF4383B0074688461D464FF000095F
:101040003C4600BFFFF7ACFEA06BE16B884201D3CA
:10105000022D28D12A4641462046FFF7B4FF064616
:10106000606A08B9012000E0002068B904F124009A
:1010700001F056FA88B14FF080507D490860BFF307
:101080004F8FBFF36F8F08E03EB14FF0805078492B
:101090000860BFF34F8FBFF36F8FFFF790FE012003
:1010A00007B0BDE8F083059818B9FFF788FE002067
:1010B000F6E7B9F1000F04D101A801F025FB4FF0CC
:1010C0000109FFF77CFE00F084FEFFF769FE94F94A
:1010D0004400401C01D184F8440094F94500401CB0
:1010E00001D184F84500FFF76AFE05A901A801F0C7
:1010F00012FBF0B92046FFF757FFA0B104F1100032
:10110000059901F0D8F92046FFF70FFF00F033FDF5
:10111000002897D14FF0805055490860BFF34F8F9A
:10112000BFF36F8F8EE72046FFF7FFFE00F023FD31
:1011300088E72046FFF7F9FE00F01DFD0020AFE72D
:101140002DE9FF4F81B0054616461F462C4600BFCD
:101150002821EFF3118081F31188BFF34F8FBFF384
:101160006F8F00BF8146A06BE16B884201D3022FD5
:1011700029D194F945A0A06B00903A4620460299E7
:10118000FFF721FF1AF101000ED1606A08B90120B2
:1011900000E0002038B904F1240001F0C1F910B1D9
:1011A0000EB1012030600BE000BF01F065F983460D
:1011B000DA4504D20AF1010040B284F8450000BFCC
:1011C0004FF0010801E04FF0000800BF89F31188DB
:1011D00000BF404605B0BDE8F08F2DE9F05F054641
:1011E0000E462C4600BF2821EFF3118081F31188B1
:1011F000BFF34F8FBFF36F8F00BF8046D4F838A086
:10120000E06B504524D994F945900AF10100A063A0
:1012100019F101000ED1606A08B9012000E0002038
:10122000A0B904F1240001F07BF978B176B1012076
:1012300030600BE000BF01F01FF98346D94504D2AE
:1012400009F1010040B284F8450000BF012700E029
:10125000002700BF88F3118800BF3846BDE8F09F23
:1012600070B50546FFF79CFDA86B18B9012402E094
:1012700004ED00E00024FFF7A2FD204670BD70B52C
:1012800004460D46206C70B1216CE0680144E160B9
:10129000D4E90210884201D32168E1602846226C1B
:1012A000E16801F051FF70BD2DE9F74183B00546BB
:1012B0000F464FF000082C4600BFFFF771FDA66BEC
:1012C000F6B139462046FFF7DAFF701EA0632069A9
:1012D00008B9012000E0002060B904F1100001F01D
:1012E0001FF938B14FF08050FA490860BFF34F8FB3
:1012F000BFF36F8FFFF763FD012006B0BDE8F081FB
:10130000059818B9FFF75BFD0020F6E7B8F1000F6C
:1013100004D101A801F0F8F94FF00108FFF74FFDE3
:1013200000F057FDFFF73CFD94F94400401C01D14B
:1013300084F8440094F94500401C01D184F845002C
:10134000FFF73DFD05A901A801F0E5F9F0B9204638
:10135000FFF786FFA0B104F12400059901F0ABF876
:101360002046FFF7E2FD00F006FC0028A5D14FF073
:101370008050D8490860BFF34F8FBFF36F8F9CE751
:101380002046FFF7D2FD00F0F6FB96E72046FFF778
:10139000CCFD00F0F0FB2046FFF762FF00288CD068
:1013A0000020AAE7F3B583B0054600272C4600BF0E
:1013B000FFF7F6FCA66BCEB1701EA063206908B9DA
:1013C000012000E0002060B904F1100001F0A8F84D
:1013D00038B14FF08050BF490860BFF34F8FBFF363
:1013E0006F8FFFF7ECFC012005B0F0BD049818B931
:1013F000FFF7E5FC0020F7E71FB901A801F084F929
:101400000127FFF7DCFC00F0E4FCFFF7C9FC94F9CE
:101410004400401C01D184F8440094F94500401C6C
:1014200001D184F84500FFF7CAFC04A901A801F026
:1014300072F9F0B92046FFF713FFA0B104F12400C0
:10144000049901F038F82046FFF76FFD00F093FB98
:101450000028ADD14FF080509E490860BFF34F8FF8
:10146000BFF36F8FA4E72046FFF75FFD00F083FB1B
:101470009EE72046FFF759FD00F07DFB2046FFF771
:10148000EFFE002894D00020AEE72DE9F74382B0AC
:1014900005460F464FF000082C4600BFFFF780FCC2
:1014A000D4F83890B9F1000F1ED0E66839462046CE
:1014B000FFF7E5FEE660606A08B9012000E0002061
:1014C00060B904F1240001F02BF838B14FF08050DE
:1014D00080490860BFF34F8FBFF36F8FFFF76FFC3A
:1014E000012005B0BDE8F083049818B9FFF767FC48
:1014F0000020F6E7B8F1000F04D1684601F004F9C6
:101500004FF00108FFF75BFC00F063FCFFF748FCBD
:1015100094F94400401C01D184F8440094F945003A
:10152000401C01D184F84500FFF749FC04A9684636
:1015300001F0F1F8F0B92046FFF792FEA0B104F1F6
:101540002400049900F0B7FF2046FFF7EEFC00F0FE
:1015500012FB0028A2D14FF080505E490860BFF313
:101560004F8FBFF36F8F99E72046FFF7DEFC00F047
:1015700002FB93E72046FFF7D8FC00F0FCFA204678
:10158000FFF76EFE002889D00020AAE72DE9F74F6B
:10159000054616462C4600BF2821EFF3118081F343
:1015A0001188BFF34F8FBFF36F8F00BF8046D4F811
:1015B00038A0BAF1000F28D094F944902046019940
:1015C000FFF75DFEAAF10100A06319F101000ED141
:1015D000206908B9012000E00020A0B904F1100042
:1015E00000F09EFF78B176B1012030600BE000BFC3
:1015F00000F042FF8346D94504D209F1010040B210
:1016000084F8440000BF012700E0002700BF88F3F2
:10161000118800BF3846BDE8FE8F2DE9F04705462A
:1016200089462C4600BF2821EFF3118081F31188F1
:10163000BFF34F8FBFF36F8F00BF0746A06B48B15A
:10164000D4F80C8049462046FFF719FEC4F80C80F8
:10165000012600E0002600BF87F3118800BF304656
:10166000BDE8F08770B50446FFF79AFBA56BFFF75E
:10167000A6FB284670BD70B504462546FFF790FBD3
:10168000D5E90E10461AFFF79AFB304670BD0146A9
:101690000A46906B704770B5044625462846FFF70A
:1016A00069FA70BD0146086C70470146C86B704707
:1016B00001460A46936B0BB9012000E000207047F9
:1016C00010B501460A46936BD46BA34204D10120A6
:1016D00003E0000004ED00E0002010BD2DE9FF5FF5
:1016E00080460E469146DDE90E7A109CA9F1010074
:1016F000216B01EB800B2BF0070B7EB1002507E07F
:10170000715D04F134004155705D00B902E06D1C5B
:10171000102DF5D300BF002143200155052F00D324
:101720000427E762201DFFF7C4FA04F11800FFF751
:10173000C0FA2461C7F10500A061646241465846C1
:10174000039AFFF7FEFA2060BAF1000F01D0CAF841
:101750000040BDE8FF9F2DE9FF5F0746884616461B
:101760009946DDE90EABB000FFF760F9054675B1AB
:101770004C20FFF75BF904462CB14C21204601F0C8
:101780004AFD256304E02846FFF7F4F900E0002451
:1017900054B100204B4632464146CDE900ABCDE97D
:1017A00002403846FFF79AFF204604B0BDE8F09F9C
:1017B00010B5002407E004EB8401F94A02EB810034
:1017C000FFF76AFA641C052CF5D3F648FFF764FAB4
:1017D000F548FFF761FAF548FFF75EFAF448FFF7BE
:1017E0005BFAF448FFF758FAEE48F3490860EE4810
:1017F000F249086010BD10B50446FFF7D1FAF04871
:101800000068401CEE490860EE48006840B9ED48A9
:1018100004600846006801280DD1FFF7C9FF0AE0FF
:10182000E948006838B9E7480068C06AE16A884258
:1018300001D8E4480460E5480068401CE3490860BA
:1018400000BF94F82C1001208840E1490968084342
:10185000DF49086000BFE16A01EB8101D04A02EB79
:1018600081014868A0608268E260211D8268516041
:101870008160E16A01EB8101C94A02EB8102626188
:10188000E16A01EB8101C64A52F82110491CE26A63
:1018900002EB8202C24B43F8221000BF00BFFFF7E9
:1018A0008EFAC948006878B100BFC6480068C06AAF
:1018B000E16A884207D24FF08050C6490860BFF302
:1018C0004F8FBFF36F8F00BF10BD2DE9FC5F064641
:1018D0000F4690469946DDE90CAB4B4642463946E9
:1018E0003046CDE900ABFFF736FF054625B1284667
:1018F000FFF781FF012401E04FF0FF342046BDE8EF
:10190000FC9F10B50446206BFFF734F92046FFF723
:1019100031F910BDA8480068006808B9012000E04E
:10192000002020B14FF0FF30AB49086005E0A2482D
:101930000068C0680068A849086070472DE9F04158
:1019400005460026FFF72CFA15B99E48006800E00E
:1019500028460446201DFFF7D5F988B900BFE06A84
:1019600000EB80008E4951F8200040B994F82C100B
:10197000012088409649096881439548016000BF6D
:10198000A06A18B104F11800FFF7BCF98F4800688D
:10199000401C8E4908608B480068844201D10120B8
:1019A00000E0002007468848006858B157B1211D63
:1019B0007F48FFF781F989480068401C8749086023
:1019C000012606E07E480068401E7D490860FFF75A
:1019D000A1FFFFF7F4F9012E02D02046FFF791FF97
:1019E0007948006858B177480068844207D14FF0C1
:1019F000805078490860BFF34F8FBFF36F8FBDE809
:101A0000F0812DE9F04100277548006800287DD15C
:101A100074480068451C7348056095B900BF664866
:101A2000D0F8008065480068634908606348C0F8E2
:101A300000806D480068401C6B490860FFF76AFF32
:101A400000BF6548006885427DD300BF5A480068E2
:101A5000006808B9012000E0002020B14FF0FF30FD
:101A60005D4908606EE054480068C068C4686668F4
:101A7000B54202D25848066064E000BF6069D4E90C
:101A800002128A60D4E902214A60211D42688A421A
:101A900001D1E1684160002262610168491E016074
:101AA00000BFA06AA0B100BFA06AD4E907128A6093
:101AB000D4E907214A6004F1180142688A4201D141
:101AC000216A41600022A2620168491E016000BFD4
:101AD00000BF94F82C10012088403D490968084354
:101AE0003B49086000BFE16A01EB81012C4A02EB2F
:101AF00081014868A0608268E260211D82685160AF
:101B00008160E16A01EB8101254A00E02BE002EBF4
:101B100081026261E16A01EB8101214A52F82110E0
:101B2000491CE26A02EB82021D4B43F8221000BFFF
:101B300000BF2449E06A0968C96A884286D901273A
:101B400084E700E000BF1F480068C06A00EB800027
:101B5000134951F82000012800D9012723480068C3
:101B600000B1012704E022480068401C20490860B9
:101B70003846BDE8F0812DE9F04100240027FFF749
:101B80000FF9002516480068401E154908600846F0
:101B9000006800287ED10A48006800287AD090E0CA
:101BA00070280010D4280010E8280010FC2800102D
:101BB0001029001024290010640000106800001093
:101BC00038000010300000104400001054000010D5
:101BD0004000001004ED00E0580000103400001038
:101BE000600000103C000010500000104C0000107D
:101BF00048000010FC48C068C46800BFA06AD4E96F
:101C000007128A60D4E907214A6004F1180142688A
:101C10008A4201D1216A41600022A2620168491E04
:101C2000016000BF00BF6069D4E902128A60D4E994
:101C300002214A60211D42688A4201D1E168416067
:101C4000002262610168491E016000BF00BF94F874
:101C50002C1001208840E54909680843E3490860E1
:101C600000BFE16A01EB8101E14A02EB81014868B2
:101C7000A0608268E260211D826851608160E16A33
:101C800001EB8101DA4A02EB81026261E16A01EB58
:101C9000810100E041E0D64A52F82110491CE26A75
:101CA00002EB8202D24B43F8221000BF00BFD149A1
:101CB000E06A0968C96A884203D90120CE4941F81F
:101CC0002500C948006808B9012000E0002000286C
:101CD00090D00CB1FFF71EFEC84806686EB100BF79
:101CE000FFF78FFE18B10120C34941F82500761E89
:101CF000002EF5D10020C1490860BF4850F82500EA
:101D000058B1012700BFBB4800683807BC490860CC
:101D1000BFF34F8FBFF36F8F00BFFFF750F8384608
:101D2000BDE8F0812DE9F04705460E46B548076845
:101D3000B548D0F80080B548D0F80090AD480068AC
:101D4000001DFEF7DFFF50B9AA48006890F82C107C
:101D500001208840A54909688143A4480160681CA6
:101D60001CD1DEB100BFAA494868A2490968886051
:101D7000A04982680968CA609E490968091D82688D
:101D800051609C490968091D8160A14A9949096807
:101D90004A6111460968491C116018E07C19954890
:101DA00000684460BC4206D292480168091D48465A
:101DB000FEF78EFF0BE08F480168091D4046FEF7D5
:101DC00087FF94480068844201D292480460BDE8CD
:101DD000F08791480068401C8F49086070472DE9E2
:101DE000F047044688464FF00009FFF7F2FF8548A8
:101DF0000668206800EB08052068B04207D9206813
:101E0000A8420BD9B54209D94FF0010906E0206874
:101E1000A84201D8B54201D94FF001092560B9F1B6
:101E2000000F03D0A81B0021FFF77CFFFFF7A3FEE4
:101E300007463FB94FF0805071490860BFF34F8F9C
:101E4000BFF36F8F4846BDE8F08770B504460025A4
:101E500044B1FFF7BEFF00212046FFF763FFFFF705
:101E60008AFE05463DB94FF0805065490860BFF3D2
:101E70004F8FBFF36F8F70BD70B50446FEF790FFB4
:101E800014B95C48006800E020460646F56AFEF793
:101E900096FF284670BD70B5024600BF2825EFF3B7
:101EA000118485F31188BFF34F8FBFF36F8F00BF8D
:101EB000214612B94F4C246800E014462346D86AE4
:101EC00000BF81F3118800BF70BD2DE9F047804647
:101ED0000D464FF00009052D00D30425FEF760FFE5
:101EE000B8F1000F02D14348006800E040460446C4
:101EF000E66AAE4274D0B5420BD93E4800688442CF
:101F000011D03C480068C06AA8420CD24FF00109C9
:101F100009E038480068844201D1012000E0002037
:101F2000012800D18146E76AE562A06910F0004F00
:101F300002D1C5F10500A06107EB87012C4A02EB35
:101F400081016069884201D1012000E00020C8B30E
:101F5000201DFEF7D7FE30B90120B840234909689B
:101F600081432248016000BF94F82C100120884072
:101F70001E49096808431D49086000BFE16A01EB7A
:101F800081011B4A02EB81014868A0608268E2601F
:101F9000211D826851608160E16A01EB8101144A70
:101FA00002EB81026261E16A01EB8101104A52F8A1
:101FB0002110491CE26A02EB82020D4B43F8221009
:101FC00000BF00BFB9F1000F09D000BF4FF0805033
:101FD0000B490860BFF34F8FBFF36F8F00BF00BF87
:101FE000FEF7EDFEBDE8F087FC2800104000001071
:101FF00070280010300000104C0000104800001045
:1020000004ED00E03C0000106400001068000010C7
:10201000242900105800001060000010FE480068DD
:1020200018B10120FD49086021E00020FB4908604B
:1020300000BFFB480068B0FA80F0C0F11F0100BF8C
:1020400001EB8102F74B03EB820042685268426069
:1020500000F108024368934201D1C26842604268BD
:10206000D268F14B1A6000BF00BF18460068704785
:1020700070B50546FEF794FE15B9EB48006800E020
:1020800028460446201DFEF73DFE88B900BFE06AE1
:1020900000EB8000E34951F8200040B994F82C107F
:1020A00001208840DE4909688143DD48016000BFA6
:1020B000A06A18B104F11800FEF724FE211DDB48C8
:1020C000FEF7FAFD002009E004F14801095C01294E
:1020D00003D1002204F148010A54401C0128F3DB1B
:1020E000FEF76DFED248006828B1FEF759FEFFF7F3
:1020F00011FCFEF764FECC480068844217D1CC483E
:10210000006840B14FF08050CA490860BFF34F8F5C
:10211000BFF36F8F0BE0C5480668C748006886426A
:1021200003D10020C049086001E0FFF777FF70BDD0
:1021300010B5024600231146BC4C4869A04201D1AB
:10214000012000E00020E0B1BC4C886AA04201D12F
:10215000012000E00020A0B9886A08B9012000E051
:10216000002070B10123002007E001F14804245C45
:10217000012C01D1002302E0401C0128F5DB00BF47
:1021800000BF184610BD70B505462C46A64800682D
:1021900084424CD0002C4AD0FEF702FE2046FFF7C6
:1021A000C7FF002841D0201DFEF7ACFD00BF94F80A
:1021B0002C10012088409A49096808439849086012
:1021C00000BFE16A01EB8101964A02EB8101486898
:1021D000A0608268E260211D826851608160E16ACE
:1021E00001EB81018F4A02EB81026261E16A01EB3E
:1021F00081018C4A52F82110491CE26A02EB8202EA
:10220000884B43F8221000BF00BF00BF864800681B
:10221000C06AE16A884207D24FF080508549086061
:10222000BFF34F8FBFF36F8F00BFFEF7C8FD70BDC8
:102230002DE9F04106460027344600BF2821EFF380
:10224000118081F31188BFF34F8FBFF36F8F00BFF1
:1022500005462046FFF76CFF002844D06E48006812
:1022600000283BD17049E06A0968C96A884203D9ED
:102270000127012069490860201DFEF743FD00BFCA
:1022800094F82C1001208840654909680843644986
:10229000086000BFE16A01EB8101624A02EB810143
:1022A0004868A0608268E260211D82685160816098
:1022B000E16A01EB81015B4A02EB81026261E16A42
:1022C00001EB8101574A52F82110491CE26A02EBE6
:1022D0008202544B43F8221000BF04E004F11801BD
:1022E0005648FEF7E9FC00BF85F3118800BF384669
:1022F000BDE8F08110B516E0FEF752FD5048C06809
:10230000C468201DFEF7FEFC4B480068401E4A4989
:1023100008604C480068401E4A490860FEF74FFDBF
:102320002046FFF7EEFA474800680028E4D110BDC8
:1023300000BFFFF7DFFF3B4800680128F9D94FF0E5
:1023400080503C490860BFF34F8FBFF36F8FF0E7B9
:10235000F0B587B001260027002408E03AA0005D10
:1023600003A9085503A8005D00B902E0641C102C05
:10237000F4DB00BF002510E0354F364800EB850048
:1023800000210B468022CDE9001003A93846FFF753
:102390009CFA064606B902E06D1C012DECDB00BF7D
:1023A000304607B0F0BD10B5FFF7D2FF0446012C50
:1023B00014D100BF282080F31188BFF34F8FBFF3E3
:1023C0006F8F00BF4FF0FF3023490860012018498C
:1023D0000860002021490860FEF7CCFC2048006816
:1023E00010BD10B5002405E01A4951F82400FFF78C
:1023F000A5FA641C012CF7DBFFF77CFF00BF282047
:1024000080F31188BFF34F8FBFF36F8F00BF0020A1
:102410000749086026E00000600000104C00001032
:102420004000001070280010300000102429001017
:102430004400001004ED00E038000010FC280010FB
:10244000102900103400001049444C4500000000E1
:10245000312300006C000010580000103C000010F8
:102460005C000010FEF79BFC10BDFA49086870473D
:102470000021F84A10687047F74800687047014625
:1024800011B9F648006800E00846024602F134003F
:10249000704770B50446FFF79CFCFEF781FCF048DE
:1024A00000682044EE490860FEF789FCFFF763FBF3
:1024B0000546284670BD70B505460C46E7480168DC
:1024C00018312846FEF704FC01212046FFF72AFCBC
:1024D00070BD70B504460D46164645F00040DF4914
:1024E0000968886100BF6068DC490968C861DB4928
:1024F000826809680A62D94909681831826851609E
:10250000D649096818318160D44909688C6221680C
:10251000491C216000BF01213046FFF703FC70BD5C
:1025200070B50346D868C16800BF886AD1E907451D
:10253000A560D1E90754656001F118044568A5421A
:1025400001D10C6A446000258D620468641E046039
:1025500000BFC4480068002842D100BF4869D1E9E3
:102560000245A560D1E9025465600C1D4568A5428D
:1025700001D1CC68446000254D610468641E04608C
:1025800000BF00BF91F82C400120A040B64C246849
:102590002043B54C206000BFCC6A04EB8404B34DEB
:1025A00005EB8404606888608568CD600C1D8568D3
:1025B0006C608460CC6A04EB8404AC4D05EB84054C
:1025C0004D61CC6A04EB8404A84D55F82440641C8A
:1025D000CD6A05EB8505A54E46F8254000BF11E004
:1025E00000BFA34C6068C86185680D6201F11804E2
:1025F00085686C6084609E4D8D622C462468641CE6
:102600002C6000BF954CC86A2468E46AA04204D9D3
:1026100001220120974C206000E00022104670BD8E
:1026200070B502460B4643F000411160D06800BF10
:102630001169D2E90154AC60D2E901456C604C6883
:10264000944201D194684C60002414610C68641EAB
:102650000C6000BF00BF4169D0E90245A560D0E928
:1026600002546560041D4D68A54201D1C4684C60E8
:10267000002545610C68641E0C6000BF00BF90F827
:102680002C400121A140784C24682143764C2160E4
:1026900000BFC46A04EB8404744D05EB84046168D4
:1026A00081608D68C560041D8D686C608C60C46A33
:1026B00004EB84046D4D05EB84054561C46A04EBAD
:1026C00084046A4D55F82440641CC56A05EB8505F1
:1026D000664E46F8254000BF00BF604CC16A2468C2
:1026E000E46AA14202D90121624C216070BD10B59B
:1026F0000446FEF755FB60480068206055480068B6
:102700006060FEF75CFB10BD5B49096801605149E0
:1027100009684160704770B506460C46FEF740FBFD
:102720004C4802687068131A2068401C01D10025CB
:1027300019E0514930680968884206D070689042B3
:1027400003D80125002020600DE02068984207D9B9
:102750002068C01A20603046FFF7D6FF002502E04F
:10276000002020600125FEF72AFB284670BD0120CD
:1027700040490860704739490868704701460020A1
:10278000002903DB012901DA012200E000220AB15D
:10279000324A106870473149096888692F490968C9
:1027A000C96AC1F105012D4A1268916170472DE98E
:1027B000F0470446884616464FF00009FFF709FB2C
:1027C000FEF7EEFA25480068443050F8240030B98E
:1027D0000121224800684830015506B18946FEF7BC
:1027E000EEFAB9F1010F03D101213046FFF79AFA51
:1027F000FFF7C1F90746B9F1010F08D13FB94FF012
:1028000080501E490860BFF34F8FBFF36F8FFEF7F4
:10281000C7FA12480068443050F824507DB1B8F12E
:10282000000F06D000210D480068443040F8241005
:1028300005E0681E09490968443141F82400002177
:102840000648006848300155FEF7B9FA2846BDE849
:10285000F08700003C00001038000010300000102D
:1028600048000010600000104000001070280010A8
:10287000FC2800104C0000105000001004ED00E097
:102880002DE9F05F0446884691461D46DDF828A0F4
:102890004FF0000BFFF79DFAFEF782FAFE48006842
:1028A0004830005D022811D0FB490968443101EB32
:1028B0008400016821EA080101600121F6480068EE
:1028C00048300155BAF1000F00D08B46FEF777FA79
:1028D000BBF1010F03D101215046FFF723FAFFF7A7
:1028E0004AF90746BBF1010F08D13FB94FF08050BC
:1028F000EA490860BFF34F8FBFF36F8FFEF750FABE
:102900002DB1E5480068443050F824002860E248C2
:1029100000684830005D022801D0002609E0DE4949
:102920000968443101EB8400016821EA0901016072
:1029300001260021D848006848300155FEF73FFACB
:102940003046BDE8F09F2DE9F05F81460D46164602
:102950001F46DDF828A04FF0010B4C46FEF720FA89
:10296000BAF1000F05D004F1440050F82500CAF870
:10297000000004F1480010F8058002214155052FA0
:1029800029D2DFE807F027030D171C0004F14400EB
:1029900050F82500304304F1440141F825001BE0C4
:1029A00004F1440050F82500401C04F1440141F8B2
:1029B000250011E004F1440040F825600CE0B8F176
:1029C000020F04D004F1440040F8256001E04FF00C
:1029D000000B01E000E000BF00BFB8F1010F52D1D1
:1029E00000BF6069D4E902128A60D4E902214A601A
:1029F000211D42688A4201D1E16841600022626182
:102A00000168491E016000BF00BF94F82C1001202E
:102A10008840A34909680843A149086000BFE16AEA
:102A200001EB81019F4A02EB81014868A060826846
:102A3000E260211D826851608160E16A01EB8101E1
:102A4000984A02EB81026261E16A01EB8101954AD9
:102A500052F82110491CE26A02EB8202914B43F8C2
:102A6000221000BF00BF00BF8B480068C06AE16A47
:102A7000884207D24FF0805088490860BFF34F8FDB
:102A8000BFF36F8F00BFFEF79AF95846BDE8F09F7D
:102A90002DE9F04F05460C469C46DDE909674FF0ED
:102AA000010A294600BF2823EFF3118083F3118820
:102AB000BFF34F8FBFF36F8F00BF814626B101F187
:102AC000440050F82400306001F1480010F8048000
:102AD00002230355BCF1050F29D2DFE80CF02703D0
:102AE0000D171C0001F1440050F82400104301F1BF
:102AF000440343F824001BE001F1440050F8240093
:102B0000401C01F1440343F8240011E001F14400AA
:102B100040F824200CE0B8F1020F04D001F1440089
:102B200040F8242001E04FF0000A01E000E000BF7F
:102B300000BFB8F1010F7AD15B480068002851D17D
:102B400000BF4869D1E9023BC3F808B0D1E902B33C
:102B5000C3F804B00B1DD0F804B09B4501D1CB687D
:102B600043604FF0000BC1F814B003685B1E0360B4
:102B700000BF00BF91F82C3001209840484B1B68E3
:102B80001843474B186000BFCB6A03EB8303DFF8A1
:102B900014B10BEB830358688860D0F808B0C1F813
:102BA0000CB00B1DD0F808B0CBF804308360CB6AB2
:102BB00003EB8303DFF8ECB00BEB830BC1F814B02D
:102BC000CB6A03EB8303DFF8DCB05BF823305B1CDC
:102BD000D1F82CB00BEB8B0BDFF8C8E04EF82B30A4
:102BE00000BF18E000BF314B5868C861D0F808B08A
:102BF000C1F820B001F11803D0F808B0CBF80430C8
:102C00008360DFF8A8B0C1F828B05B461B685B1C86
:102C1000CBF8003000BF204BC86A1B68DB6A9842C3
:102C200005D90FB1012038600120214B186000BF89
:102C300089F3118800BF5046BDE8F08F2DE9F041BF
:102C400003461446184600BF2827EFF3118287F386
:102C50001188BFF34F8FBFF36F8F00BF154600F190
:102C60004802565C02275754121F52F82120521C6A
:102C700000F1440747F82120012E7CD10A4A12684E
:102C8000002A61D100BF4269D0E9027CC7F808C0C0
:102C9000D0E902C70EE000003000001004ED00E0B3
:102CA000400000107028001060000010FC28001088
:102CB0004C000010C7F804C0071DD2F804C0BC4582
:102CC00001D1C76857604FF0000CC0F814C01768F6
:102CD0007F1E176000BF00BF90F82C700122BA4021
:102CE0005E4F3F683A435D4F3A6000BFC76A07EBEB
:102CF0008707DFF86CC10CEB87077A688260D2F82F
:102D000008C0C0F80CC0071DD2F808C0CCF8047089
:102D10009760C76A07EB8707DFF844C10CEB870CA5
:102D2000C0F814C0C76A07EB8707DFF834C15CF846
:102D300027707F1CD0F82CC00CEB8C0CDFF82081A6
:102D400048F82C7000BF1AE000BF464F7A68C26195
:102D5000D2F808C0C0F820C000F11807D2F808C0A7
:102D6000CCF804709760DFF8FCC0C0F828C0674654
:102D70003F687F1C00E00EE0CCF8007000BF3A4FC7
:102D8000C26A3F68FF6ABA4205D90CB101222260CB
:102D90000122364F3A6000BF85F3118800BFBDE8BD
:102DA000F0812DE9F04106460C4616B92E48006820
:102DB00000E030460746FDF7F3FF07F14800005DED
:102DC000022805D1002107F148000155012500E046
:102DD0000025FDF7F4FF2846BDE8F0812DE9F0411C
:102DE00006460C46174616B91F48006800E03046F4
:102DF0000546FDF7D5FF05F1440050F8248050F852
:102E00002400B84305F1440141F82400FDF7D7FF41
:102E10004046BDE8F0810021134A1160144A116058
:102E2000144A1160144A11600C4A1160134A11606F
:102E3000134A1160002004E000210C4A42F82010DF
:102E4000401C0128F8DB00210E4A11600E4A116077
:102E50000E4A11600E4A11607047000040000010D9
:102E600070280010FC280010300000104C000010EA
:102E700034000010380000103C0000104400001026
:102E800048000010500000105400001058000010BE
:102E90006000001053EA020C00F069802DE9F04B4D
:102EA0004FF00006002B1FBFB3FA83F503FA05F4B9
:102EB00024FA05F65E4012BF1643B2FA82F502FA12
:102EC00005F4C5F120051EBF22FA05FC44EA0C04F6
:102ED000203556EA044C4FEA144418BF641C4FF0E6
:102EE00000084FF00009904271EB030C39D3002920
:102EF00019BFB1FA81F701FA07F6B0FA80F700FAC4
:102F000007F6C7F120071EBF20FA07FC46EA0C06A9
:102F10002037B6FBF4FCA7EB0507103F07F01F0BAB
:102F2000CBF120060CFA0BFB2CFA06F644BFB34695
:102F30000026202FA4BF5E464FF0000B5BEA060C74
:102F400008BF4FF0010B19EB0B09ABFB027C48EB00
:102F50000608C01B06FB02CC0BFB03CC71EB0C017B
:102F6000C1E70B46024641464846BDE8F08B13B523
:102F70004FF000004FF00001AFF30080BDE81C40AF
:102F8000704700002DE9F0410646002410687529BD
:102F9000314616A511D0AFF30080002803DAC0F146
:102FA000000013A507E031688A0701D511A502E0EA
:102FB000490704D510A5012401E0AFF300800021EA
:102FC0000A2306F1240707E0B0FBF3F203FB12002B
:102FD000303078541046491C0028F5D123462A4643
:102FE0003046BDE8F04100F03DB9000000000000AF
:102FF0002D0000002B000000200000002DE9F0470C
:103000004FF0000A89460446C0F820A02046E16837
:103010008847002876D0252806D0D4E9012190479A
:10302000206A401C2062F1E7E168204600258847BD
:10303000C4F81CA006460027C4F818A02A2E09D000
:10304000304600F0F0F938B304EB8708303EC8F89A
:10305000186019E059F8041B204604EB87029161BF
:10306000E1688847012F064618D1E069002820DA78
:1030700025F020051DE0D8F8180000EB800006EBD5
:1030800040003038C8F818002046E16888470646F6
:1030900000F0C9F90028EED1012F0AD02E2E08D158
:1030A0002046E16888477F1C0646022F45F0200530
:1030B000C4DBA069002803DA404245F00105A061A5
:1030C000E80701D025F01005B6B1A6F14100192896
:1030D00002D8203645F400654A4631462046256030
:1030E0004D46FDF72DF858B1012806D0ED1D25F00D
:1030F000070000F1080989E704E005F1040985E704
:1031000030468AE7206ABDE8F08700000B4910B519
:10311000A1F17C020A4CC2E93712372106E000EB2C
:10312000104342F82130074B00FB03400B1EA1F176
:103130000101F4DC10BD0120E8E70000B429001013
:10314000E119D666CD0D0100032A40F2308010F05F
:10315000030C00F0158011F8013BBCF1020F624432
:1031600098BF11F801CB00F8013B38BF11F8013BC3
:10317000A2F1040298BF00F801CB38BF00F8013B70
:1031800011F0030300F0E780083AC0F0088051F81E
:10319000043B083A51F804CBA0E80810F5E7121DEB
:1031A0005CBF51F8043B40F8043BAFF30080D2070A
:1031B00024BF11F8013B11F801CB48BF11F8012BD6
:1031C00024BF00F8013B00F801CB48BF00F8012BF9
:1031D00070474FF000020429C0F0128010F0030C79
:1031E00000F01B80CCF1040CBCF1020F18BF00F8FA
:1031F000012BA8BF20F8022BA1EB0C0100F00DB8A9
:103200005FEAC17C24BF00F8012B00F8012B48BF06
:1032100000F8012B70474FF0000200B513469446AA
:103220009646203922BFA0E80C50A0E80C50B1F11E
:103230002001BFF4F7AF090728BFA0E80C5048BF32
:103240000CC05DF804EB890028BF40F8042B08BFD0
:10325000704748BF20F8022B11F0804F18BF00F8CC
:10326000012B70472DE9F0470D46994692460446DA
:1032700000F124080168880604D5E06921F01001F6
:10328000216000E00120A84202DDA0EB050700E07C
:103290000027A16907EB050202EB0900A1EB000082
:1032A000A0612078C00602D42046FCF7FBFF002670
:1032B00008E0D4E901211AF806009047206A401C72
:1032C000761C20624E45F4DB2078C0060AD52046E5
:1032D000FCF7E8FF06E0D4E9012130209047206A9E
:1032E000401C2062381EA7F10107F4DC07E0D4E996
:1032F000012118F805009047206A401C2062281E12
:10330000A5F10105F3DC2046FCF7E3FF2078000679
:1033100002D50220BDE8F0870120FBE701694A1CC5
:1033200002610878704700B58FB0CDE90131002106
:10333000059105497944CDE9031011466846FFF728
:103340005DFE0FB000BD0000E5FFFFFF0A6802F858
:10335000010B0A60704710B5203AC0F00B80B1E84D
:103360001850203AA0E81850B1E81850A0E81850BA
:10337000BFF4F5AF5FEA027C24BFB1E81850A0E8C3
:10338000185044BF18C918C0BDE810405FEA827CDD
:1033900024BF51F8043B40F8043B08BF7047D207F4
:1033A00028BF31F8023B48BF11F8012B28BF20F895
:1033B000023B48BF00F8012B7047754600F028F823
:1033C000AE4605006946534620F00700854618B012
:1033D00020B5FCF743FFBDE820404FF000064FF05A
:1033E00000074FF000084FF0000B21F00701AC463A
:1033F000ACE8C009ACE8C009ACE8C009ACE8C00959
:103400008D4670470446AFF300802046FCF7ACFEC3
:10341000004870471C2A001001491820ABBEFEE787
:1034200026000200704730380A2801D20120704778
:10343000002070474B0000006200000024000000E4
:10344000603400000000001070000000080100005F
:10345000D034000070000010102C00002401000087
:1034600000000000000000000000000000E1F50581
:10347000000000000000000000000000000000004C
:10348000000000000000000000000000AAAAAAAA94
:10349000000000000000000000000000000000002C
:1034A000000000000000000000000000000000001C
:1034B0000000000000000000000000000400000008
:1034C00000000000000000000000000000000000FC
:0400000500000241B4
:00000001FF
